:020000040800F2
:10000000C80F00209D010008A94A0008E52D00083E
:100010006D3700086503000815580008000000004F
:10002000000000000000000000000000A5510008D2
:100030006903000800000000194B00085D57000824
:10004000B7010008B7010008B7010008B7010008B0
:10005000B7010008B7010008B7010008B7010008A0
:10006000B7010008B7010008B7010008B701000890
:10007000B7010008B7010008B7010008B701000880
:10008000B7010008B7010008B7010008B701000870
:10009000B7010008B7010008B7010008B701000860
:1000A000B7010008B7010008B7010008B701000850
:1000B000B7010008B7010008B7010008B701000840
:1000C000B7010008B7010008B7010008B701000830
:1000D000B7010008B7010008B7010008B701000820
:1000E000B7010008B7010008B701000800000000D0
:1000F0000000000000000000000000000000000000
:10010000000000000000000000000000B70100082F
:10011000B7010008B7010008B7010008000000009F
:10012000B7010008B7010008B7010008B7010008CF
:10013000B7010008000000000000000000000000FF
:10014000B7010008B701000800000000000000002F
:10015000000000000000000000000000000000009F
:100160000000000000000000B7010008B70100080F
:10017000B7010008000000000000000000000000BF
:1001800000000000B7010008DFF80CD000F08CF888
:1001900000480047595F0008C80F00200648804704
:1001A00006480047FEE7FEE7FEE7FEE7FEE7FEE75C
:1001B000FEE7FEE7FEE7FEE70158000889010008B8
:1001C0002DE9F05F0546002092469B46884606468C
:1001D000814640241BE0284641464746224600F01F
:1001E00053F853465A46C01A914110D31146184647
:1001F000224600F03AF82D1A67EB01084F462246D6
:100200000120002100F031F817EB00094E41201EBB
:10021000A4F10104DFDC484631462A464346BDE8E6
:10022000F09F40EA01039B0703D009E008C9121FB1
:1002300008C0042AFAD203E011F8013B00F8013BA0
:10024000521EF9D27047D2B201E000F8012B491ECC
:10025000FBD270470022F6E710B513460A46044663
:100260001946FFF7F0FF204610BD202A04DB203A94
:1002700000FA02F1002070479140C2F1200320FAF9
:1002800003F3194390407047202A04DB203A21FAF7
:1002900002F00021704721FA02F3D040C2F120029F
:1002A0009140084319467047064C074D06E0E06848
:1002B00040F0010394E8070098471034AC42F6D3AD
:1002C000FFF766FFFC6400081C65000880B582B07B
:1002D00040F60000C4F60000802100F02FFB8DF8EE
:1002E000070040F6B810C2F2000000789DF8071031
:1002F000884227D1FFE740F6BA10C2F20000018819
:10030000013101800088B0F5FA6F1ADBFFE740F693
:10031000BA11C2F200014FF4FA6008809DF807009C
:1003200038B9FFE740F6C211C2F20001012008709F
:1003300006E040F6C211C2F2000100200870FFE79B
:10034000FFE706E040F6BA11C2F200010020088083
:10035000FFE79DF8070040F6B811C2F200010870EF
:1003600002B080BDFFE7FEE77047000080B586B0B1
:1003700040F25600C2F20000017801318DF81310EE
:10038000417801318DF81410817801318DF8151004
:10039000C07801308DF81600002003900C210DF17B
:1003A000130205F023FD039901220292084605F08D
:1003B000C9FC029A0398114605F0C4FC052000F020
:1003C000F5F80398032104F0BBFC13280AD0FFE7DB
:1003D000002001900121102205F0B4FC01988DF855
:1003E00017003CE000200121042205F0ABFCFFE7F0
:1003F00000208DF81200022104F0A2FC8DF81200FA
:100400009DF8120038B1FFE79DF81220002002216C
:1004100005F098FCFFE7052000F0C8F89DF81200F1
:100420000007002804D5FFE700208DF8170016E02C
:100430000020062104F084FCFF280AD0FFE70020FA
:1004400001210091102205F07DFC00988DF8170025
:1004500005E0FFE7FFE701200028C9D1FFE79DF88D
:10046000170006B080BD000080B588B084460A98A9
:10047000CDF818C0ADF81610ADF814200493ADF8FF
:100480000E000020ADF80C00ADF80C00FFE7BDF841
:100490000C00BDF80E10884229DAFFE70698BDF877
:1004A0001610BDF81420049BEC464FF47A7ECCF86D
:1004B00008E04FF0010ECCF804E0CCF80030022345
:1004C00000F0ACFB20B1FFE703208DF81F0012E025
:1004D000BDF814000130ADF8140004980130049008
:1004E000FFE7BDF80C000130ADF80C00CFE70020AD
:1004F0008DF81F00FFE79DF81F0008B080BD0000C9
:1005000080B588B084460A98CDF818C0ADF81610AA
:10051000ADF814200493ADF80E000020ADF80C00E7
:10052000ADF80C00FFE7BDF80C00BDF80E108842D6
:100530002CDAFFE70698BDF81610BDF81420049BCE
:10054000EC464FF47A7ECCF808E04FF0010ECCF880
:1005500004E0CCF80030022300F0A6FC20B1FFE755
:1005600003208DF81F0015E0BDF814000130ADF830
:100570001400049801300490052000F017F8FFE7FC
:10058000BDF80C000130ADF80C00CCE700208DF870
:100590001F00FFE79DF81F0008B080BD81B0EFF39A
:1005A000108072B60090FFE7FEE7000080B584B0CF
:1005B000039000F005FA0290039801900198013031
:1005C00048B1FFE740F24400C2F200000178019810
:1005D00008440190FFE7FFE700F0F2F90299401AA2
:1005E0000199884201D2FFE7F6E704B080BD000020
:1005F0008AB00990089100200790FFE708980068EA
:100600000799C840002800F09781FFE70898006824
:10061000079A01219140084006900698002800F0B2
:100620008781FFE70898406800F00300012807D0A1
:10063000FFE70898406800F0030002282FD1FFE789
:1006400009988068059007984100032000FA01F19D
:100650000598884305900898C0680799490000FAF2
:1006600001F1059808430590059809998860099853
:10067000406805900799012000FA01F10598884328
:10068000059008984068C0F30010079900FA01F13E
:10069000059808430590059809994860FFE7089870
:1006A000406800F00300032818D0FFE70998C068ED
:1006B000059007984100032000FA01F1059888434E
:1006C0000590089880680799490000FA01F105989B
:1006D0000843059005980999C860FFE708984068A5
:1006E00000F00300022826D1FFE7099807996FF070
:1006F000030202EA51010844006A0590079800F0DD
:10070000070081000F2000FA01F105988843059049
:1007100008980069079901F00701890000FA01F1C2
:1007200005980843059005980999079B02EA53022A
:1007300011440862FFE70998006805900798410096
:10074000032000FA01F10598884305900898406855
:1007500000F003000799490000FA01F105980843E9
:100760000590059809990860089880798007002805
:1007700000F0DD80FFE7FFE741F21800C4F202005D
:10078000016841F001010160006800F0010004907F
:100790000498FFE7079820F003000821C4F2010144
:1007A00040580590079800F0030081000F2000FAE0
:1007B00001F10598884305900998B0F1904F03D155
:1007C000FFE70020039034E0099840F20041C4F6AE
:1007D0000001884203D1FFE70120029026E009983A
:1007E00040F60001C4F60001884203D1FFE7022071
:1007F000019018E0099840F60041C4F600018842D3
:1008000003D1FFE7032000900AE0099941F20002BA
:10081000C4F600020520914208BF04200090FFE7C3
:1008200000980190FFE701980290FFE7029803907B
:10083000FFE70398079901F00301890000FA01F12D
:100840000598084305900598079921F003010822AF
:10085000C4F20102885040F20840C4F2010000686E
:100860000590069905988843059008988079C006F8
:10087000002805D5FFE70699059808430590FFE78E
:10088000059840F20841C4F20101086040F20C40B2
:10089000C4F2010000680590069905988843059008
:1008A000089880798006002805D5FFE70699059805
:1008B00008430590FFE7059840F20C41C4F201019E
:1008C000086040F20440C4F20100006805900699F7
:1008D000059888430590089880798007002805D5F9
:1008E000FFE70699059808430590FFE7059840F251
:1008F0000441C4F20101086040F20040C4F201006A
:1009000000680590069905988843059008988079B5
:10091000C00728B1FFE70699059808430590FFE74F
:10092000059840F20041C4F201010860FFE7FFE7CB
:1009300007980130079061E60AB0704782B00190D5
:10094000ADF8021001980069BDF80210084204D009
:10095000FFE701208DF8010003E000208DF8010081
:10096000FFE79DF8010002B07047000083B00290DD
:10097000ADF80610029840690090009ABDF8060094
:1009800002EA0001904340EA01400299886103B005
:100990007047000082B00190ADF802108DF8012080
:1009A0009DF8010028B1FFE7BDF8020001998861B8
:1009B00004E0BDF8020001998862FFE702B07047C9
:1009C00040F6BC10C2F200000068704783B001908E
:1009D0000091019890F8410020283BD1FFE7FFE704
:1009E000019890F84000012804D1FFE702208DF81B
:1009F0000B0033E00199012081F84000FFE7FFE799
:100A00000199242081F8410001980168086820F0CC
:100A10000100086001980168086820F480500860AF
:100A2000009A0198016808681043086001980168FD
:100A3000086840F0010008600199202081F8410019
:100A4000FFE70199002081F84000FFE700208DF8C2
:100A50000B0003E002208DF80B00FFE79DF80B0070
:100A600003B0704784B002900191029890F8410061
:100A7000202840D1FFE7FFE7029890F840000128C6
:100A800004D1FFE702208DF80F0038E00299012021
:100A900081F84000FFE7FFE70299242081F8410038
:100AA00002980168086820F0010008600298006858
:100AB00000680090009820F4706000900199009800
:100AC00040EA0120009000980299096808600298A5
:100AD0000168086840F0010008600299202081F850
:100AE0004100FFE70299002081F84000FFE7002065
:100AF0008DF80F0003E002208DF80F00FFE79DF84E
:100B00000F0004B07047000080B582B000900098DC
:100B100020B9FFE701208DF807007BE0009890F8EE
:100B2000410040B9FFE70099002081F8400000989B
:100B300000F0F4FAFFE70099242081F841000098C2
:100B40000168086820F001000860009801684068AA
:100B500020F07060086100980168886820F4004007
:100B600088600098C068012807D1FFE700980168F5
:100B7000806840F40040886006E000980168806862
:100B800040F404408860FFE70098C068022807D15D
:100B9000FFE700980168486840F40060486006E09C
:100BA00000980168486820F400604860FFE70098FA
:100BB0000168486848F20002C0F200221043486011
:100BC00000980168C86820F40040C860009A116865
:100BD000106953699269184340EA0220C860009A7C
:100BE0001168D069126A10430860009801680868AB
:100BF00040F001000860009900204864009A20211C
:100C000082F8411000990863009981F842008DF83C
:100C10000700FFE79DF8070002B080BD10B588B05F
:100C200084460C980B98DDF828E0CDF818C0ADF894
:100C30001610ADF81420ADF81230ADF8100006987B
:100C400090F84100202840F02681FFE70A9820B163
:100C5000FFE7BDF8100040B9FFE706994FF40070B8
:100C6000486401208DF81F0019E1FFE7069890F80D
:100C70004000012804D1FFE702208DF81F000EE19B
:100C80000699012081F84000FFE7FFE7FFF798FE93
:100C90000390069803996A4611604FF400410122BF
:100CA000192302F0ABFA20B1FFE701208DF81F00F5
:100CB000F5E00699222081F841000699402081F84C
:100CC00042000699002048640A99069A5162BDF8CC
:100CD0001010069A5185069948630698BDF81610BB
:100CE000BDF81420BDF81230DDF830C0039CEE468C
:100CF000CEF80440CEF800C002F096F950B1FFE7FC
:100D0000FFE70699002081F84000FFE701208DF8F9
:100D10001F00C4E00698408DB0F5807F14D3FFE734
:100D20000699012008850698BDF8161090F828202D
:100D3000EC4642F20043C8F20003CCF800304FF01A
:100D4000807302F031FA14E00698408D0699088508
:100D50000698BDF8161090F82820EC4642F20043A1
:100D6000C8F20003CCF800304FF0007302F01CFA18
:100D7000FFE7FFE706980C9B03996A461160042180
:100D8000002202F03BFA20B1FFE701208DF81F009E
:100D900085E006980068406A0699496A08700699D5
:100DA000486A013048620699088D0138088506991D
:100DB000488D013848850698408DE8B3FFE70698CE
:100DC000008DC8BBFFE706980C9B03996A4611602B
:100DD0008021002202F012FA20B1FFE701208DF8F5
:100DE0001F005CE00698408DB0F5807F11D3FFE7CF
:100DF0000699012008850698BDF8161090F828205D
:100E0000EC460023CCF800304FF0807302F0CCF9B0
:100E100011E00698408D069908850698BDF81610D1
:100E200090F82820EC460023CCF800304FF00073F7
:100E300002F0BAF9FFE7FFE7FFE70698408D0028C8
:100E400098D1FFE706980C99039A02F039FA20B17D
:100E5000FFE701208DF81F0021E00698016820209F
:100E6000C86106990A6851684EF60003CFF6006320
:100E700019405160069981F841000699002081F8D7
:100E80004200FFE70699002081F84000FFE70020BC
:100E90008DF81F0003E002208DF81F00FFE79DF88A
:100EA0001F0008B010BD000010B588B084460C9833
:100EB0000B98DDF828E0CDF818C0ADF81610ADF8A5
:100EC0001420ADF81230ADF81000069890F84100EB
:100ED000202840F01B81FFE70A9820B1FFE7BDF80A
:100EE000100040B9FFE706994FF4007048640120F4
:100EF0008DF81F000EE1FFE7069890F840000128EA
:100F000004D1FFE702208DF81F0003E106990120BC
:100F100081F84000FFE7FFE7FFF752FD03900698D6
:100F200003996A4611604FF400410122192302F02F
:100F300065F920B1FFE701208DF81F00EAE006996E
:100F4000212081F841000699402081F8420006994D
:100F5000002048640A99069A5162BDF81010069A5A
:100F60005185069948630698BDF81610BDF81420FF
:100F7000BDF81230DDF830C0039CEE46CEF80440D8
:100F8000CEF800C002F0B0F850B1FFE7FFE70699D5
:100F9000002081F84000FFE701208DF81F00B9E034
:100FA0000698408DB0F5807F11D3FFE70699FF20AA
:100FB00008850698BDF8161090F82820EC46002306
:100FC000CCF800304FF0807302F0EEF811E0069894
:100FD000408D069908850698BDF8161090F82820CF
:100FE000EC460023CCF800304FF0007302F0DCF840
:100FF000FFE7FFE706980C99039A02F0B3F920B1D6
:10100000FFE701208DF81F0084E006980168406A20
:10101000007888620699486A013048620699488DCE
:10102000013848850699088D013808850698408D55
:10103000E8B3FFE70698008DC8BBFFE706980C9B56
:1010400003996A4611608021002202F0D7F820B18E
:10105000FFE701208DF81F005CE00698408DB0F599
:10106000807F11D3FFE70699FF2008850698BDF819
:10107000161090F82820EC460023CCF800304FF0F2
:10108000807302F091F811E00698408D069908856A
:101090000698BDF8161090F82820EC460023CCF8EE
:1010A00000304FF0007302F07FF8FFE7FFE7FFE743
:1010B0000698408D00289DD1FFE706980C99039A69
:1010C00002F0FEF820B1FFE701208DF81F0021E0BB
:1010D000069801682020C86106990A6851684EF692
:1010E0000003CFF6006319405160069981F8410072
:1010F0000699002081F84200FFE70699002081F858
:101100004000FFE700208DF81F0003E002208DF86B
:101110001F00FFE79DF81F0008B010BD80B588B024
:101120000790002006900590049003900290079885
:10113000006845F20041C4F20001884230D1FFE767
:10114000FFE741F21400C4F20200016841F480217B
:101150000160006800F4802001900198FFE7C02042
:101160000290122003900020049003200590042098
:10117000069040F20040C4F6000002A9FFF738FADA
:10118000FFE741F21C00C4F20200016841F40011C3
:101190000160006800F4001000900098FFE7FFE78E
:1011A00008B080BD40F24400C2F20000027840F670
:1011B000BC11C2F2000108681044086070470000CA
:1011C00080B542F20001C4F20201086840F010004C
:1011D0000860032000F07CF80F2000F005F800F014
:1011E0003BF8002080BD000080B582B0009040F246
:1011F0004000C2F20000006840F24401C2F2000167
:101200000A784FF47A71B1FBF2F1B0FBF1F001F022
:10121000C1FD20B1FFE701208DF8070018E000981C
:101220000F280DD8FFE700994FF0FF30002200F0A3
:1012300035F8009840F24801C2F20001086003E06E
:1012400001208DF8070003E000208DF80700FFE77C
:101250009DF8070002B080BD82B0FFE741F21800A0
:10126000C4F20200016841F001010160006800F071
:10127000010001900198FFE7FFE741F21C00C4F272
:101280000200016841F080510160006800F0805068
:1012900000900098FFE702B07047000080B586B06C
:1012A0008DF81700049103920020029004F0F8FDDD
:1012B00002909DF91700019002980499039A03F097
:1012C000F5FB0146019804F0F3FD06B080BD000077
:1012D00080B582B00190019804F00CFE02B080BD90
:1012E00004F026FE80B58AB0089000200790069092
:1012F0008DF8170008988078C007002800F0D28089
:10130000FFE741F21C00C4F202000068C0000028A0
:1013100013D4FFE7FFE741F21C00C4F202000168AA
:1013200041F080510160006800F080500490049802
:10133000FFE701208DF81700FFE747F20000C4F235
:1013400000000068C005002822D4FFE747F2000132
:10135000C4F20001086840F480700860FFF730FBB9
:101360000790FFE747F20000C4F200000068C005E4
:1013700000280CD4FFE7FFF723FB0799401A6528E4
:1013800004D3FFE703208DF8270054E1EAE7FFE7E5
:1013900041F22000C4F20200006800F440700690A0
:1013A0000698002864D0FFE706980899496801F478
:1013B000407188425CD0FFE741F22001C4F2020193
:1013C000086820F44070069040F24042C4F2422285
:1013D0000120106000201060069808609DF8180039
:1013E000C007002843D0FFE7FFF7EAFA0790FFE7BE
:1013F000012038B9FFE741F20000C4F202000068A2
:10140000039020E0002038B9FFE741F22000C4F249
:1014100002000068029013E0012038B9FFE741F2B2
:101420000400C4F202000068019006E041F22400CA
:10143000C4F2020000680190FFE701980290FFE704
:1014400002980390FFE70398800700280ED4FFE777
:10145000FFF7B6FA0799401A41F28931884204D35E
:10146000FFE703208DF82700E5E0C1E7FFE7FFE78E
:1014700041F22001C4F20201086820F44070089A89
:101480005268104308609DF81700012809D1FFE752
:1014900041F21C01C4F20201086820F0805008608B
:1014A000FFE7FFE708980078C00760B1FFE741F267
:1014B0003001C4F20201086820F00300089A926823
:1014C00010430860FFE708980078800700280CD5D3
:1014D000FFE741F23001C4F20201086820F4403015
:1014E000089AD26810430860FFE708980078400720
:1014F00000280CD5FFE741F23001C4F20201086870
:1015000020F44020089A126910430860FFE7089809
:101510000078800600280CD5FFE741F23001C4F2C4
:101520000201086820F01000089AD2691043086090
:10153000FFE708988078800700280CD5FFE741F284
:101540000401C4F20201086820F48000089A126BBA
:1015500010430860FFE708980078400600280CD583
:10156000FFE741F23001C4F20201086820F02000D8
:10157000089A126A10430860FFE70898007800078D
:1015800000280CD5FFE741F23001C4F202010868DF
:1015900020F44010089A526910430860FFE7089849
:1015A0000078C00600280CD5FFE741F23001C4F2F4
:1015B0000201086820F44000089A9269104308600C
:1015C000FFE708984078800700280CD5FFE741F234
:1015D0000401C4F20201086820F40000089A926A2B
:1015E00010430860FFE708980078000600280CD533
:1015F000FFE741F22C01C4F20201086820F4F87000
:10160000089A526A10430860FFE708984078C006BD
:1016100000280CD5FFE741F23001C4F2020108684E
:1016200020F48070089AD26A10430860FFE7002017
:101630008DF82700FFE79DF827000AB080BD000065
:1016400080B58EB00C900B9100200A900C9820B9B8
:10165000FFE701208DF8370073E10B9842F200019B
:10166000C4F20201096801F00701884216D9FFE7B8
:1016700042F20000C4F20200016821F007010B9A57
:1016800011430160006800F007000B99884204D004
:10169000FFE701208DF8370053E1FFE70C98007851
:1016A000800700280CD5FFE741F20401C4F20201D3
:1016B000086820F0F0000C9A926810430860FFE779
:1016C0000C980078C007002800F0D680FFE70C983F
:1016D0004068012835D1FFE7002038B9FFE741F223
:1016E0000000C4F202000068099020E0012038B92F
:1016F000FFE741F22000C4F202000068089013E006
:10170000012038B9FFE741F20400C4F2020000688A
:10171000079006E041F22400C4F20200006807903E
:10172000FFE707980890FFE708980990FFE70998F6
:101730008003002804D4FFE701208DF8370000E182
:101740006FE00C984068022835D1FFE7002038B9D7
:10175000FFE741F20000C4F202000068069020E0BA
:10176000012038B9FFE741F22000C4F2020000680E
:10177000059013E0012038B9FFE741F20400C4F2FC
:1017800002000068049006E041F22400C4F2020066
:1017900000680490FFE704980590FFE7059806901D
:1017A000FFE706988001002804D4FFE701208DF8A8
:1017B0003700C6E034E0002038B9FFE741F200000E
:1017C000C4F202000068039020E0012038B9FFE76E
:1017D00041F22000C4F202000068029013E00120F0
:1017E00038B9FFE741F20400C4F20200006801903A
:1017F00006E041F22400C4F2020000680190FFE715
:1018000001980290FFE702980390FFE70398800792
:10181000002804D4FFE701208DF8370091E0FFE7AE
:10182000FFE741F20401C4F20201086820F003005E
:101830000C9A526810430860FFF7C2F80A90FFE75D
:1018400041F20400C4F20200006800F00C000C99A0
:101850004968B0EB810F0ED0FFE7FFF7B1F80A99A6
:10186000401A41F28931884204D3FFE703208DF802
:10187000370066E0E4E7FFE70B9842F20001C4F2AC
:101880000201096801F00701884216D2FFE742F21F
:101890000000C4F20200016821F007010B9A114315
:1018A0000160006800F007000B99884204D0FFE750
:1018B00001208DF8370044E0FFE70C9800784007DE
:1018C00000280CD5FFE741F20401C4F202010868C8
:1018D00020F4E0600C9AD26810430860FFE70C988F
:1018E0000078000700280DD5FFE741F20401C4F29B
:1018F0000201086820F460500C9A126940EAC200A4
:101900000860FFE700F022F841F20401C4F202018E
:101910000968C9B20A0946F29841C0F60001895C1B
:10192000C84040F24001C2F20001086040F24800A5
:10193000C2F200000068FFF757FC00208DF8370066
:10194000FFE79DF837000EB080BD000080B586B07F
:1019500000200590049003900290019041F2040051
:10196000C4F2020000680590059800F00C000146E2
:101970000091002841D0FFE70098042804D0FFE739
:101980000098082806D039E041F20020C0F27A0021
:10199000019039E00598C0F3834146F2C040C0F69B
:1019A0000000405C029041F22C00C4F2020000688A
:1019B00000F00F0146F2D040C0F60000405C0490F9
:1019C0009DF81600C00768B1FFE7049A41F20020B5
:1019D000C0F27A0000231946FEF7F2FB0299484351
:1019E000039007E0029840F60011C0F23D01484321
:1019F0000390FFE70398019006E0FFE741F2002023
:101A0000C0F27A000190FFE7019806B080BD0000A7
:101A100080B5AEB02C902C9828B9FFE701208DF846
:101A2000B70000F028BD2C980078C007002800F00F
:101A30003181FFE741F20400C4F20200006800F0C7
:101A40000C00042813D0FFE741F20400C4F20200A6
:101A5000006800F00C00082843D1FFE741F20400C1
:101A6000C4F202000068C00300283AD5FFE7002056
:101A700038B9FFE741F20000C4F202000068279085
:101A800020E0012038B9FFE741F22000C4F2020053
:101A90000068269013E0012038B9FFE741F2040006
:101AA000C4F202000068259006E041F22400C4F26E
:101AB000020000682590FFE725982690FFE726980A
:101AC0002790FFE727988003002809D5FFE72C9887
:101AD000406828B9FFE701208DF8B70000F0CBBCC3
:101AE000D7E0FFE72C984068B0F5803F09D1FFE7C9
:101AF00041F20001C4F20201086840F4803008603D
:101B000032E02C98406868B9FFE741F20001C4F266
:101B10000201086820F480300860086820F4802002
:101B2000086020E02C984068B0F5A02F0DD1FFE7A9
:101B300041F20001C4F20201086840F4802008600C
:101B4000086840F4803008600CE041F20001C4F203
:101B50000201086820F480300860086820F48020C2
:101B60000860FFE7FFE7FFE7FFE741F22C01C4F25F
:101B70000201086820F00F002C9A92681043086058
:101B80002C984068002842D0FFE7FEF719FF2B9001
:101B9000FFE7002038B9FFE741F20000C4F202007D
:101BA0000068249020E0012038B9FFE741F22000CE
:101BB000C4F202000068239013E0012038B9FFE767
:101BC00041F20400C4F202000068229006E041F2F3
:101BD0002400C4F2020000682290FFE722982390BC
:101BE000FFE723982490FFE72498800300280DD472
:101BF000FFE7FEF7E5FE2B99401A652805D3FFE7BE
:101C000003208DF8B70000F036BCC2E740E0FEF7D5
:101C1000D7FE2B90FFE7002038B9FFE741F2000024
:101C2000C4F202000068219020E0012038B9FFE7EB
:101C300041F22000C4F202000068209013E001206D
:101C400038B9FFE741F20400C4F2020000681F90B7
:101C500006E041F22400C4F2020000681F90FFE792
:101C60001F982090FFE720982190FFE7219880039C
:101C700000280CD5FFE7FEF7A3FE2B99401A652834
:101C800004D3FFE703208DF8B700F4E3C3E7FFE7D1
:101C9000FFE7FFE72C9800788007002840F10381D8
:101CA000FFE741F20400C4F20200006810F00C0FDC
:101CB00013D0FFE741F20400C4F20200006800F014
:101CC0000C00082850D1FFE741F20400C4F20200E2
:101CD0000068C003002847D4FFE7002038B9FFE7B9
:101CE00041F20000C4F2020000681E9020E00120D2
:101CF00038B9FFE741F22000C4F2020000681D90ED
:101D000013E0012038B9FFE741F20400C4F20200F9
:101D100000681C9006E041F22400C4F20200006852
:101D20001C90FFE71C981D90FFE71D981E90FFE791
:101D30001E988007002809D5FFE72C980069012824
:101D400004D0FFE701208DF8B70094E341F20001D1
:101D5000C4F20201086820F0F8002C9A526940EAA7
:101D6000C2000860FFE79DE02C980069002852D06F
:101D7000FFE70021C4F2422101200860FEF720FEA7
:101D80002B90FFE7002038B9FFE741F20000C4F2D2
:101D9000020000681B9020E0012038B9FFE741F203
:101DA0002000C4F2020000681A9013E0012038B944
:101DB000FFE741F20400C4F202000068199006E057
:101DC00041F22400C4F2020000681990FFE719985C
:101DD0001A90FFE71A981B90FFE71B9880070028CE
:101DE0000CD4FFE7FEF7ECFD2B99401A032804D32F
:101DF000FFE703208DF8B7003DE3C3E741F20001A0
:101E0000C4F20201086820F0F8002C9A526940EAF6
:101E1000C200086045E00021C4F2422100200860B1
:101E2000FEF7CEFD2B90FFE7002038B9FFE741F227
:101E30000000C4F202000068189020E0012038B9C8
:101E4000FFE741F22000C4F202000068179013E09F
:101E5000012038B9FFE741F20400C4F20200006833
:101E6000169006E041F22400C4F2020000681690C9
:101E7000FFE716981790FFE717981890FFE7189854
:101E8000800700280CD5FFE7FEF79AFD2B99401A32
:101E9000032804D3FFE703208DF8B700EBE2C3E784
:101EA000FFE7FFE7FFE72C9800780007002840F1E4
:101EB0009580FFE72C988069002847D0FFE740F223
:101EC0008041C4F2422101200860FEF779FD2B9089
:101ED000FFE7012038B9FFE741F20000C4F2020039
:101EE0000068159020E0012038B9FFE741F220009A
:101EF000C4F202000068149013E0012038B9FFE733
:101F000041F20400C4F202000068139006E041F2BE
:101F10002400C4F2020000681390FFE713981490A5
:101F2000FFE714981590FFE71598800700280CD458
:101F3000FFE7FEF745FD2B99401A032804D3FFE77E
:101F400003208DF8B70096E2C3E746E040F28041F7
:101F5000C4F2422100200860FEF732FD2B90FFE71B
:101F6000012038B9FFE741F20000C4F20200006826
:101F7000129020E0012038B9FFE741F22000C4F2BE
:101F800002000068119013E0012038B9FFE741F228
:101F90000400C4F202000068109006E041F2240040
:101FA000C4F2020000681090FFE710981190FFE75C
:101FB00011981290FFE71298800700280CD5FFE7D0
:101FC000FEF7FEFC2B99401A032804D3FFE70320F9
:101FD0008DF8B7004FE2C3E7FFE7FFE72C980078E2
:101FE0004007002840F12781FFE700208DF8A70077
:101FF00041F21C00C4F202000068C000002813D4A3
:10200000FFE7FFE741F21C00C4F20200016841F063
:1020100080510160006800F0805028902898FFE708
:1020200001208DF8A700FFE747F20000C4F200008E
:102030000068C005002822D4FFE747F20001C4F27F
:102040000001086840F480700860FEF7B9FC2B902E
:10205000FFE747F20000C4F200000068C005002856
:102060000CD4FFE7FEF7ACFC2B99401A652804D38B
:10207000FFE703208DF8B700FDE1EAE7FFE7FFE7A0
:102080002C98C068012809D1FFE741F22001C4F271
:102090000201086840F00100086031E02C98C06837
:1020A00068B9FFE741F22001C4F20201086820F09C
:1020B00001000860086820F0040008601FE02C9808
:1020C000C06805280DD1FFE741F22001C4F20201EA
:1020D000086840F004000860086840F001000860EB
:1020E0000CE041F22001C4F20201086820F0010076
:1020F0000860086820F004000860FFE7FFE7FFE7DA
:10210000FFE72C98C068002843D0FFE7FEF758FC93
:102110002B90FFE7012038B9FFE741F20000C4F23D
:10212000020000680F9020E0002038B9FFE741F27C
:102130002000C4F2020000680E9013E0012038B9BC
:10214000FFE741F20400C4F2020000680D9006E0CF
:1021500041F22400C4F2020000680D90FFE70D98E0
:102160000E90FFE70E980F90FFE70F98800700286A
:102170000ED4FFE7FEF724FC2B99401A41F2893177
:10218000884204D3FFE703208DF8B70073E1C1E76D
:1021900042E0FEF715FC2B90FFE7012038B9FFE77E
:1021A00041F20000C4F2020000680C9020E0002020
:1021B00038B9FFE741F22000C4F2020000680B903A
:1021C00013E0012038B9FFE741F20400C4F2020035
:1021D00000680A9006E041F22400C4F202000068A0
:1021E0000A90FFE70A980B90FFE70B980C90FFE727
:1021F0000C98800700280ED5FFE7FEF7E1FB2B992E
:10220000401A41F28931884204D3FFE703208DF858
:10221000B70030E1C1E7FFE79DF8A700012809D129
:10222000FFE741F21C01C4F20201086820F080506F
:102230000860FFE7FFE72C98C069002800F01781CD
:10224000FFE741F20400C4F20200006800F00C0055
:10225000082800F0E680FFE72C98C069022840F0CB
:102260009980FFE76021C4F2422100200860FEF758
:10227000A7FB2B90FFE7002038B9FFE741F20000F1
:10228000C4F202000068099020E0012038B9FFE79D
:1022900041F22000C4F202000068089013E001201F
:1022A00038B9FFE741F20400C4F202000068079069
:1022B00006E041F22400C4F2020000680790FFE744
:1022C00007980890FFE708980990FFE709988001B0
:1022D00000280CD5FFE7FEF773FB2B99401A032863
:1022E00004D3FFE703208DF8B700C4E0C3E741F251
:1022F0000401C4F20201086820F474102C9A136AD5
:10230000526A1A43104308606021C4F2422101203E
:102310000860FEF755FB2B90FFE7002038B9FFE778
:1023200041F20000C4F202000068069020E00120A3
:1023300038B9FFE741F22000C4F2020000680590BE
:1023400013E0012038B9FFE741F20400C4F20200B3
:102350000068049006E041F22400C4F20200006824
:102360000490FFE704980590FFE705980690FFE7C3
:102370000698800100280CD4FFE7FEF721FB2B997B
:10238000401A032804D3FFE703208DF8B70072E05A
:10239000C3E745E06021C4F2422100200860FEF757
:1023A0000FFB2B90FFE7002038B9FFE741F2000058
:1023B000C4F202000068039020E0012038B9FFE772
:1023C00041F22000C4F202000068029013E00120F4
:1023D00038B9FFE741F20400C4F20200006801903E
:1023E00006E041F22400C4F2020000680190FFE719
:1023F00001980290FFE702980390FFE7039880019D
:1024000000280CD5FFE7FEF7DBFA2B99401A0328CA
:1024100004D3FFE703208DF8B7002CE0C3E7FFE704
:1024200024E02C98C069012804D1FFE701208DF831
:10243000B70020E041F20400C4F2020000682A90D4
:102440002A9800F480302C99096A884208D1FFE765
:102450002A9800F470102C99496A884204D0FFE74A
:1024600001208DF8B70006E0FFE7FFE7FFE7002057
:102470008DF8B700FFE79DF8B7002EB080BD0000D3
:1024800080B584B00290029820B9FFE701208DF852
:102490000F0097E00298406A60B9FFE70298406831
:1024A000B0F5827F01D1FFE703E002990020C86107
:1024B000FFE705E002990020086102994861FFE703
:1024C000029900208862029890F85D0040B9FFE709
:1024D0000299002081F85C00029800F077F8FFE78D
:1024E0000299022081F85D0002980168086820F0D6
:1024F000400008600298C068B0F5E06F03D9FFE7BC
:102500000020019003E04FF480500190FFE7029813
:10251000C068B0F5706F0AD0FFE70298C068B0F5E8
:10252000E06F04D0FFE7029900208862FFE7029A7B
:10253000009211685068D2F808C0136900F48270E4
:102540000CF4044C604403F002031844536903F094
:1025500001031844936903F400731844D36903F02A
:1025600038031844136A03F080031844926A02F493
:10257000005210430860029B588B00F00400196859
:10258000DA68D3F824C05B6B0CF0100C604403F0E5
:102590000803184402F470621044019A02F4805255
:1025A0001044486002980168C86920F40060C8615E
:1025B000029900200866029A012182F85D108DF8C8
:1025C0000F00FFE79DF80F0004B080BD80B588B014
:1025D00007900020069005900490039002900798C1
:1025E000006843F60001C4F20001884231D1FFE7E0
:1025F000FFE741F21C00C4F20200016841F480418F
:102600000160006800F4804001900198FFE7FFE757
:1026100041F21400C4F20200016841F4802101601B
:10262000006800F4802000900098FFE74FF46040BD
:1026300002900220039000200490032005900520C2
:10264000069040F20040C4F6000002A9FDF7D0FF5A
:10265000FFE708B080BD000080B588B00690059106
:10266000ADF81220039300208DF80700FFE70698CD
:1026700090F85C00012804D1FFE702208DF81F00CC
:102680005CE10699012081F85C00FFE7FFE7FEF7B7
:1026900097F90290BDF81200ADF80400069890F882
:1026A0005D00012804D0FFE702208DF807003AE121
:1026B000059820B1FFE7BDF8120020B9FFE701201F
:1026C0008DF807002FE10699032081F85D00069937
:1026D000002008660599069A9163BDF81210069AC3
:1026E0009187BDF81210069AD18706990864069959
:1026F000A1F844000699A1F84600069908650699D4
:10270000C86406988068B0F5004F0DD1FFE70698C1
:102710000168086820F040000860069801680868B1
:1027200040F480400860FFE706980068006800F009
:102730004000402807D0FFE706980168086840F08D
:1027400040000860FFE70698C068B0F5E06F4BD91D
:10275000FFE70698406828B1FFE7BDF804000128AC
:102760000ED1FFE706980168806B0088C860069963
:10277000886B023088630699C88F0138C887FFE7E5
:10278000FFE70698C08F70B3FFE70698006880687F
:10279000800700280ED5FFE706980168806B008847
:1027A000C8600699886B023088630699C88F013823
:1027B000C88717E0FEF704F90299401A0399884286
:1027C00004D3FFE70398013018B9FFE7039840B935
:1027D000FFE703208DF807000699012081F85D00CE
:1027E000A1E0FFE7CDE773E00698406828B1FFE776
:1027F000BDF80400012822D1FFE70698C08F022807
:102800000ED3FFE706980168806B0088C8600699C0
:10281000886B023088630699C88F0238C8870DE03C
:1028200006980168806B007808730699886B013000
:1028300088630699C88F0138C887FFE7FFE7FFE77D
:102840000698C08F002842D0FFE70698006880688D
:102850008007002822D5FFE70698C08F02280ED3F4
:10286000FFE706980168806B0088C8600699886B4E
:10287000023088630699C88F0238C8870DE0069831
:102880000168806B007808730699886B0130886353
:102890000699C88F0138C887FFE717E0FEF790F860
:1028A0000299401A0399884204D3FFE70398013044
:1028B00018B9FFE7039840B9FFE703208DF8070038
:1028C0000699012081F85D002DE0FFE7B8E7FFE7FA
:1028D00006980399029A02F09BFA20B1FFE7069945
:1028E00020200866FFE70698806870B9FFE7FFE7D9
:1028F0000020009006980068C06800900698006864
:10290000806800900098FFE7FFE70698006E20B10E
:10291000FFE701208DF8070004E00699012081F807
:102920005D00FFE7FFE7FFE70699002081F85C0004
:10293000FFE79DF807008DF81F00FFE79DF81F00D7
:1029400008B080BD80B58EB0DDF840C00C900B9112
:102950000A92ADF826300120049000208DF80F0077
:10296000FFE70C9890F85C00012804D1FFE70220F3
:102970008DF8370009E20C99012081F85C00FFE72F
:10298000FFE7FEF71DF805900C9890F85D008DF8B4
:102990001B000C9840680790BDF82600ADF8240095
:1029A000BDF82600ADF822009DF81B00012812D0CA
:1029B000FFE70798B0F5827F09D1FFE70C988068A0
:1029C00028B9FFE79DF81B00042804D0FFE7022088
:1029D0008DF80F00CEE10B9838B1FFE70A9820B1CF
:1029E000FFE7BDF8260020B9FFE701208DF80F00B2
:1029F000C0E10C9890F85D00042805D0FFE70C9921
:102A0000052081F85D00FFE70C99002008660A990F
:102A10000C9A1164BDF826100C9AA2F84610BDF865
:102A200026100C9AA2F844100B990C9A9163BDF8E9
:102A300026100C9AD187BDF826100C9A91870C9914
:102A4000C8640C9908650C98C068B0F5E06F05D8AB
:102A5000FFE7BDF82200022807D3FFE70C980168C2
:102A6000486820F48050486006E00C980168486887
:102A700040F480504860FFE70C980068006800F060
:102A80004000402807D0FFE70C980168086840F034
:102A900040000860FFE70C98C068B0F5E06F7ED991
:102AA000FFE70C98406828B1FFE7BDF82400012833
:102AB0000ED1FFE70C980168806B0088C8600C9904
:102AC000886B023088630C99C88F0138C887FFE78C
:102AD000FFE70C98C18F0120029041B9FFE70C98E5
:102AE000B0F84600002818BF01200290FFE70298C6
:102AF000C007002852D0FFE70C9800688068800764
:102B0000002818D5FFE70C98C08FA0B1FFE7049804
:102B1000012810D1FFE70C980168806B0088C8601D
:102B20000C99886B023088630C99C88F0138C8876C
:102B300000200490FFE70C9800688068C007C0B1CF
:102B4000FFE70C98B0F8460098B1FFE70C980068D2
:102B5000C0680C99096C08800C99086C02300864F4
:102B60000C99B1F846000138A1F846000120049004
:102B7000FFE7FDF725FF0599401A109988420CD30D
:102B8000FFE71098013040B1FFE703208DF80F00F8
:102B90000C99012081F85D00ECE09AE7CEE00C98FA
:102BA000406828B1FFE7BDF82400012822D1FFE7E3
:102BB0000C98C08F02280ED3FFE70C980168806B39
:102BC0000088C8600C99886B023088630C99C88FA4
:102BD0000238C8870DE00C980168806B0078087394
:102BE0000C99886B013088630C99C88F0138C887AD
:102BF000FFE7FFE7FFE70C98C18F0120019041B983
:102C0000FFE70C98B0F84600002818BF012001909B
:102C1000FFE70198C007002800F08F80FFE70C98BD
:102C200000688068800700282CD5FFE70C98C08FCB
:102C300040B3FFE70498012824D1FFE70C98C08F28
:102C400002280ED3FFE70C980168806B0088C860EB
:102C50000C99886B023088630C99C88F0238C8873A
:102C60000DE00C980168806B007808730C99886BF4
:102C7000013088630C99C88F0138C887FFE70020AE
:102C80000490FFE70C9800688068C007E8B3FFE78E
:102C90000C98B0F84600C0B3FFE70C98B0F84600B7
:102CA00002281ED3FFE70C980068C0680C99096CD5
:102CB00008800C99086C023008640C99B1F8460041
:102CC0000238A1F846000C98B0F84600012807D851
:102CD000FFE70C980168486840F480504860FFE7BF
:102CE00010E00C980068007B0C99096C08700C9936
:102CF000086C013008640C99B1F846000138A1F85D
:102D00004600FFE701200490FFE7FDF759FE059913
:102D1000401A1099884204D3FFE71098013018B97F
:102D2000FFE7109840B9FFE703208DF80F000C99DA
:102D3000012081F85D001DE05DE7FFE70C98109928
:102D4000059A02F065F838B1FFE701208DF80F0011
:102D50000C9920200866FFE70C98006E20B1FFE771
:102D600001208DF80F0004E00C99012081F85D002E
:102D7000FFE7FFE7FFE70C99002081F85C00FFE721
:102D80009DF80F008DF83700FFE79DF837000EB073
:102D900080BD000080B582B00190019802F0B4FCC3
:102DA00002B080BD80B540F25402C2F20002108829
:102DB000411C1180B0F5FA7F0FDDFFE740F25401AE
:102DC000C2F200010020088040F60000C4F60000B6
:102DD0004FF40051FDF7CAFDFFE7FDF777FA03F066
:102DE000C9FA80BDFFE7FEE781B000900098006857
:102DF000806900F002010020B0EB510F05D0FFE721
:102E00000098016800208862FFE7009800688069E8
:102E1000C00738B9FFE700980168886940F00100F1
:102E20008861FFE701B0704780B58AB009900891CA
:102E3000079200208DF81B0009990968896905919E
:102E40000490079803909DF81400C006002840F1F4
:102E50008680FFE7099801681020C861FFE709989C
:102E60000068806900F0200200210846B1EB521F83
:102E7000009007D1FFE79DF81B00B0FA80F04009F1
:102E80000090FFE70098C007002857D0FFE7089898
:102E90000130002851D0FFE7FDF792FD0399401A59
:102EA0000899884204D8FFE70898002844D1FFE732
:102EB00009980068406800F480400290099890F8F2
:102EC00042008DF8070009980068806981B20020EF
:102ED000B0EBD13F14D0FFE70298B0F5804F0FD090
:102EE000FFE79DF8070020280AD0FFE7099801684E
:102EF000486840F480404860FDF762FD0390FFE7BA
:102F0000FFE709980068806900F020010020B0EB1D
:102F1000511F10D1FFE7FDF753FD0399401A1A28FE
:102F200008D3FFE7049840F02000049001208DF8BA
:102F30001B0000E0E5E7FFE7FFE790E79DF81B00D7
:102F400028B9FFE7099801682020C861FFE70498C5
:102F500040F00400049001208DF81B00FFE7099861
:102F60000068806905909DF81500C00768B1FFE70B
:102F7000049840F001000490099801684FF48070B3
:102F8000C86101208DF81B00FFE79DF81500400780
:102F900000280DD5FFE7049840F008000490099838
:102FA00001684FF48060C86101208DF81B00FFE7C5
:102FB0009DF81500800700280DD5FFE7049840F024
:102FC00002000490099801684FF40070C861012064
:102FD0008DF81B00FFE79DF81B0000B3FFE7099881
:102FE000FFF702FF0998016848684EF60002CFF625
:102FF000006210404860049A0999486C1043486484
:103000000999202081F841000999002081F84200A7
:10301000FFE70999002081F84000FFE7FFE79DF8EE
:103020001B000AB080BD000080B586B0DDF824C06A
:10303000DDF820C00490ADF80E10ADF80C20ADF80E
:103040000A300498BDF80E109DF80A20EC4642F2B2
:103050000003C8F20003CCF80030002300F0A4F80D
:1030600004980899099A00F07DF920B1FFE7012042
:103070008DF8170033E0BDF80A00012806D1FFE7FC
:103080009DF80C0004990968886215E09DF80D0010
:1030900004990968886204980899099A00F062F90D
:1030A00020B1FFE701208DF8170018E09DF80C0013
:1030B000049909688862FFE70498089B09996A46A1
:1030C00011604021002200F099F820B1FFE70120B3
:1030D0008DF8170003E000208DF81700FFE79DF83A
:1030E000170006B080BD000080B586B0DDF824C0B2
:1030F000DDF820C00490ADF80E10ADF80C20ADF84E
:103100000A300498BDF80E109DF80A20EC4642F2F1
:103110000003C8F20003CCF800304FF0807300F0D9
:1031200043F804980899099A00F01CF920B1FFE7C8
:1031300001208DF8170033E0BDF80A00012806D100
:10314000FFE79DF80C0004990968886215E09DF876
:103150000D0004990968886204980899099A00F09A
:1031600001F920B1FFE701208DF8170018E09DF864
:103170000C00049909688862FFE70498089B099984
:103180006A4611608021002200F038F820B1FFE784
:1031900001208DF8170003E000208DF81700FFE7ED
:1031A0009DF8170006B080BD84B0DDF810C0039014
:1031B000ADF80A108DF809200193BDF80A006FF3ED
:1031C0009F209DF8091040EA0140019908430499A5
:1031D000084320F00040009003980068406804997C
:1031E00020EA515049F60041CFF6004108400099CD
:1031F000084303990968486004B0704780B586B0F9
:10320000DDF820C0049003918DF80B200193FFE7B7
:1032100004980068806903990840401AB0FA80F069
:1032200040099DF80B10884242D1FFE704980199AC
:10323000089AFFF7F9FD20B1FFE701208DF817008C
:103240003AE00198013090B3FFE7FDF7B9FB089928
:10325000401A0199884203D8FFE7019830BBFFE785
:1032600004980068806903990840401AB0FA80F019
:1032700040099DF80B10884217D1FFE70499486C6C
:1032800040F0200048640499202081F8410004990E
:10329000002081F84200FFE70499002081F84000F7
:1032A000FFE701208DF8170006E0FFE7FFE7AFE733
:1032B00000208DF81700FFE79DF8170006B080BDCD
:1032C00080B584B0029001910092FFE702980068F7
:1032D000806900F020010020B0EB511F39D1FFE7D9
:1032E00002980199009AFFF79FFD20B1FFE70120A6
:1032F0008DF80F0031E0FDF763FB0099401A01994A
:10330000884203D8FFE7019810BBFFE702980068E6
:10331000806900F020010020B0EB511F17D1FFE7BA
:103320000299486C40F0200048640299202081F8FE
:1033300041000299002081F84200FFE70299002035
:1033400081F84000FFE701208DF80F0005E0FFE75E
:10335000BCE700208DF80F00FFE79DF80F0004B0D8
:1033600080BD000080B584B0029001910092FFE71B
:1033700002980068806900F002010020B0EB510F54
:103380003ED1FFE702980199009AFFF74DFD20B169
:10339000FFE701208DF80F0036E00198013070B38F
:1033A000FFE7FDF70DFB0099401A0199884203D809
:1033B000FFE7019810BBFFE702980068806900F002
:1033C00002010020B0EB510F17D1FFE70299486CC2
:1033D00040F0200048640299202081F841000299C1
:1033E000002081F84200FFE70299002081F84000A8
:1033F000FFE701208DF80F0006E0FFE7FFE7B7E7E2
:1034000000208DF80F00FFE79DF80F0004B080BD8D
:1034100082B0019000208DF80300ADF800008DF817
:103420000300FFE79DF80300032814DCFFE79DF885
:10343000032046F2E540C0F600001044007940F257
:103440009601C2F200018854FFE79DF803000130A5
:103450008DF80300E6E700208DF80300FFE79DF8F4
:103460000300012814DCFFE79DF8032046F2E54045
:10347000C0F600001044007A40F25A01C2F2000186
:103480008854FFE79DF8030001308DF80300E6E75C
:1034900000208DF80300FFE79DF8030003281ADCE5
:1034A000FFE701989DF80320805C40F25601C2F2CC
:1034B0000001885401989DF80310405C40F25A02C4
:1034C000C2F2000211448870FFE79DF8030001304A
:1034D0008DF80300E0E700208DF80300FFE79DF87A
:1034E0000300022813DCFFE79DF8032040F256009A
:1034F000C2F20000805C40F25001C2F20001885428
:10350000FFE79DF8030001308DF80300E7E740F284
:103510005001C2F200010120C87001980179407980
:1035200040EA0120ADF8000000208DF80300FFE71D
:103530009DF80300072819DCFFE7BDF800009DF89F
:10354000032040F26E01C2F2000121F812009DF842
:10355000032040F23801C2F2000100208854FFE746
:103560009DF8030001308DF80300E1E702B07047D9
:1035700080B592B00020119010900F900E900D9099
:10358000FFE741F21400C4F20200016841F4002197
:103590000160006800F400200C900C98FFE7FFE742
:1035A00041F21400C4F20200016841F4800101609C
:1035B000006800F480000B900B98FFE7FFE741F2F2
:1035C0001400C4F20200016841F400310160006897
:1035D00000F400300A900A98FFE7FFE741F2140078
:1035E000C4F20200016841F480210160006800F427
:1035F000802009900998FFE740F60000C4F600001B
:1036000007904FF40151009100220692FDF7C2F994
:10361000069A4FF090400290FC210191FDF7BAF913
:10362000069A40F20040C4F6000005904FF4805125
:103630000391FDF7AFF9009A069907980D920122C0
:1036400004920E920F9110910DA90891FCF7D0FFF2
:10365000DDF804C00298049B069A0899CDF834C09E
:103660000E930F921092FCF7C3FFDDF80CC0049B81
:103670000598069A0899CDF834C00E930F921092CF
:10368000FCF7B6FF069A079808994FF4C0730D939C
:103690000E920F92FCF7ACFF12B080BD80B582B0E5
:1036A00040F60010C2F20000019045F20041C4F261
:1036B0000001016041F62B51C0F220014160002160
:1036C00081600122C260016141618161C161016269
:1036D000FDF71AFA18B1FFE7FCF760FFFFE740F6C5
:1036E0000010C2F200000021FDF770F918B1FFE7E9
:1036F000FCF754FFFFE740F60010C2F20000002183
:10370000FDF7B0F918B1FFE7FCF748FFFFE702B09B
:1037100080BD000080B582B040F65410C2F20000B7
:10372000009043F60001C4F2000101604FF4827181
:1037300041600021019181604FF4E062C26001614B
:1037400041614FF400728261C16101624162816234
:103750000722C262016308214163FEF791FE18B19E
:10376000FFE7FCF71BFFFFE702B080BDFFE7FEE7C6
:1037700080B58AB08DF827000891ADF81E20002092
:103780008DF81D00ADF81A0040F2FC41C2F20001B4
:10379000059108990731049105990731039104991E
:1037A0004A78897841EA0221ADF80A100499CA786A
:1037B000097941EA0221ADF808108DF807008DF86B
:1037C0000600ADF804008DF803008DF80200BDF886
:1037D0001E000C2804D0FFE703208DF81D0009E02F
:1037E000BDF80A10BDF80820012000F0EBFE8DF8AE
:1037F0001D00FFE79DF81D00002840F0B580FFE7A1
:103800000599089A106852684A6008600820ADF867
:103810001A00BDF80800C0088DF807009DF80800E0
:10382000400730B1FFE79DF8070001308DF8070031
:10383000FFE79DF8070003994870BDF81A000130B2
:10384000ADF81A0000208DF80600FFE79DF806008D
:103850009DF8071088420DDAFFE703999DF80600EE
:10386000014400208870FFE79DF8060001308DF8C4
:103870000600EBE700208DF80600FFE79DF8060044
:10388000BDF80810884242DAFFE7BDF80A009DF84B
:10389000061008440009ADF80400BDF80A009DF8C0
:1038A00006100844C0F3C0008DF80300BDF80A00FC
:1038B0009DF80610084400F007008DF80200BDF8DE
:1038C000041040F29A00C2F2000000EB41009DF8A3
:1038D0000310084490F840009DF80210C840C0074B
:1038E00070B1FFE79DF8061001F00702012000FA11
:1038F00002F2039800EBD101887810438870FFE74B
:10390000FFE79DF8060001308DF80600B6E79DF848
:103910000710BDF81A000844ADF81A00BDF81A00E7
:10392000811F88B2000A40EA0120059988809DF82D
:10393000271040F27E00C2F20000405C032812D142
:10394000FFE79DF8272040F26601C2F20001885C83
:1039500000F0FD0088549DF827000599BDF81A2055
:1039600002F00AF9FFE707E09DF8270008999DF8A3
:103970001D2000F0E1FDFFE70AB080BD80B58AB0F0
:103980008DF827000891ADF81E2000208DF81D004D
:10399000ADF81A0040F2FC41C2F20001059108990D
:1039A0000731049105990731039104994A78897880
:1039B00041EA0221ADF80A100499CA78097941EA6E
:1039C0000221ADF808108DF807008DF80600ADF85B
:1039D00004008DF803008DF80200BDF81E000C28CD
:1039E00004D0FFE703208DF81D0009E0BDF80A10A0
:1039F000BDF80820022000F0E5FD8DF81D00FFE76E
:103A00009DF81D00002840F0B580FFE70599089A51
:103A1000106852684A6008600820ADF81A00BDF8C6
:103A20000800C0088DF807009DF80800400730B175
:103A3000FFE79DF8070001308DF80700FFE79DF8CC
:103A4000070003994870BDF81A000130ADF81A005C
:103A500000208DF80600FFE79DF806009DF807108E
:103A600088420DDAFFE703999DF806000144002023
:103A70008870FFE79DF8060001308DF80600EBE73F
:103A800000208DF80600FFE79DF80600BDF808103D
:103A9000884242DAFFE7BDF80A009DF806100844A4
:103AA0000009ADF80400BDF80A009DF806100844AE
:103AB000C0F3C0008DF80300BDF80A009DF80610A1
:103AC000084400F007008DF80200BDF8041040F231
:103AD0009A00C2F2000000EB41009DF80310084478
:103AE00090F820009DF80210C840C00770B1FFE7B1
:103AF0009DF8061001F00702012000FA02F2039877
:103B000000EBD101887810438870FFE7FFE79DF84C
:103B1000060001308DF80600B6E79DF80710BDF8E5
:103B20001A000844ADF81A00BDF81A00811F88B2C7
:103B3000000A40EA0120059988809DF8271040F28C
:103B40007E00C2F20000405C032812D1FFE79DF81E
:103B5000272040F26601C2F20001885C00F0FD00FF
:103B600088549DF827000599BDF81A2002F004F842
:103B7000FFE707E09DF8270008999DF81D2000F059
:103B8000DBFCFFE70AB080BD80B588B08DF81F0070
:103B90000691ADF8162000208DF81500ADF8120042
:103BA00040F2FC40C2F200000390069807300290F9
:103BB00003980730019002984178807840EA01200C
:103BC000ADF802000298C178007940EA0120ADF812
:103BD0000000BDF816000C2804D0FFE703208DF884
:103BE000150009E0BDF80210BDF80020032000F028
:103BF000E9FC8DF81500FFE79DF81500002850D16D
:103C0000FFE70399069A106852684A600860082026
:103C1000ADF81200BDF80000400001994870BDF8F1
:103C200012000130ADF8120001980230BDF80220F8
:103C300040F29A01C2F2000101EB4201BDF80020FE
:103C40005200FCF7EEFABDF80010BDF8120000EBD0
:103C50004100ADF81200BDF81200811F88B2000AC1
:103C600040EA0120039988809DF81F1040F27E00F1
:103C7000C2F20000405C032812D1FFE79DF81F202C
:103C800040F26601C2F20001885C00F0FD00885439
:103C90009DF81F000399BDF8122001F06DFFFFE7AA
:103CA00007E09DF81F0006999DF8152000F044FCE0
:103CB000FFE708B080BD000080B58AB08DF827000E
:103CC0000891ADF81E2000208DF81D00ADF81A00F7
:103CD00040F2FC40C2F200000590089807300490C2
:103CE00005980730039004984178807840EA0120D5
:103CF000ADF80A000498C178007940EA0120ADF8D7
:103D00000800BDF81E000C2804D0FFE703208DF842
:103D10001D0009E0BDF80A10BDF80820042000F0DD
:103D200051FC8DF81D00FFE79DF81D0010BBFFE75B
:103D300000208DF80700FFE79DF80700BDF8081088
:103D4000884216DAFFE7BDF80A009DF8071008441C
:103D500080B200F095FE8DF81D009DF81D0008B1A1
:103D6000FFE706E0FFE79DF8070001308DF8070048
:103D7000E2E7FFE79DF81D00002850D1FFE7059915
:103D8000089A106852684A6008600820ADF81A0066
:103D9000BDF80800400003994870BDF81A000130D2
:103DA000ADF81A0003980230BDF80A2040F29A01DB
:103DB000C2F2000101EB4201BDF808205200FCF7FD
:103DC00030FABDF80810BDF81A0000EB4100ADF85C
:103DD0001A00BDF81A00811F88B2000A40EA0120CB
:103DE000059988809DF8271040F27E00C2F20000FD
:103DF000405C032812D1FFE79DF8272040F26601BE
:103E0000C2F20001885C00F0FD0088549DF8270094
:103E10000599BDF81A2001F0AFFEFFE707E09DF815
:103E2000270008999DF81D2000F086FBFFE70AB0E7
:103E300080BD000080B588B08DF81F000691ADF8F8
:103E4000162000208DF81500ADF8120040F2FC405D
:103E5000C2F2000003900698073002900298417861
:103E6000807840EA0120ADF806000298C178007918
:103E700040EA0120ADF80400BDF816000C2804D07B
:103E8000FFE703208DF8150008E0BDF806100520B7
:103E9000002200F097FB8DF81500FFE79DF8150054
:103EA000002854D1FFE7BDF8040040B9FFE7BDF892
:103EB0000600002100F038FC8DF8150012E0BDF876
:103EC0000400B0F57F4F08D1FFE7BDF806000121DF
:103ED00000F02AFC8DF8150003E003208DF8150092
:103EE000FFE7FFE79DF8150040BBFFE70399069B3E
:103EF00018685A689B688B604A6008600C20ADF8AF
:103F000012009DF81F1040F27E00C2F20000405CDB
:103F1000032812D1FFE79DF81F2040F26601C2F28C
:103F20000001885C00F0FD0088549DF81F00039993
:103F3000BDF8122001F020FEFFE707E09DF81F000A
:103F400006999DF8152000F0F7FAFFE707E09DF8C5
:103F50001F0006999DF8152000F0EEFAFFE708B063
:103F600080BD000080B588B08DF81F000691ADF8C7
:103F7000162000208DF81500ADF8120040F2FC402C
:103F8000C2F2000003900698073002900298417830
:103F9000807840EA0120ADF80600BDF816000C2834
:103FA00004D0FFE703208DF8150008E0BDF80610E7
:103FB0000620002200F006FB8DF81500FFE79DF8B3
:103FC0001500002840F0BC80FFE7BDF8060002990C
:103FD000033100F013FC8DF815009DF81500002842
:103FE00040F0A580FFE7BDF8062040F29A01C2F23A
:103FF00000010298B0F8030021F812000399069B13
:1040000018685A689B688B604A6008600C20ADF89D
:104010001200BDF80600092843D1FFE740F29A00DC
:10402000C2F20000807C5A283BD1FFE740F29A019F
:10403000C2F20001AA2001F8140F0D2002F072F85C
:104040008DF815009DF8150010BBFFE79DF81F10B7
:1040500040F27E00C2F20000405C032812D1FFE76C
:104060009DF81F2040F26601C2F20001885C00F05A
:10407000FD0088549DF81F000399BDF8122001F03F
:104080007BFDFFE70520FCF791FAFDF729F907E032
:104090009DF81F0006999DF8152000F04DFAFFE7E6
:1040A00044E0BDF806000F2822D1FFE79DF81F105D
:1040B00040F27E00C2F20000405C032812D1FFE70C
:1040C0009DF81F2040F26601C2F20001885C00F0FA
:1040D000FD0088549DF81F000399BDF8122001F0DF
:1040E0004BFDFFE73220FCF761FAFDF7F9F81CE021
:1040F0009DF81F1040F27E00C2F20000405C0328D1
:1041000012D1FFE79DF81F2040F26601C2F20001C4
:10411000885C00F0FD0088549DF81F000399BDF8ED
:10412000122001F029FDFFE7FFE7FFE707E09DF818
:104130001F0006999DF8152000F0FEF9FFE707E043
:104140009DF81F0006999DF8152000F0F5F9FFE78E
:1041500008B080BD80B588B08DF81F000691ADF81D
:10416000162000208DF81500ADF8120040F2FC4139
:10417000C2F20001039106990731029102994A782F
:10418000897841EA0221ADF806100299CA780979C6
:1041900041EA0221ADF80410029949798DF8031023
:1041A0008DF802008DF801008DF80000BDF81600B2
:1041B0009DF803100D3188420FD1FFE79DF80300F1
:1041C000BDF80430D908012202EBD3025B07002BB3
:1041D00018BF1146884204D0FFE703208DF8150070
:1041E00009E0BDF80610BDF804200F2000F0EAF940
:1041F0008DF81500FFE79DF81500002875D1FFE741
:1042000000208DF80200FFE79DF80200BDF80410C1
:1042100088422CDAFFE79DF8020000F007008DF8D5
:10422000010002989DF8021000EBD10080799DF802
:10423000011001228A401040C8408DF80000BDF8EE
:1042400006009DF8021008449DF8001080B200F0AE
:104250006BFA8DF815009DF8150008B1FFE706E030
:10426000FFE79DF8020001308DF80200CCE79DF8D1
:10427000150088BBFFE70399069B18685A689B687E
:104280008B604A6008600C20ADF81200BDF8120087
:10429000811F88B2000A40EA0120039988809DF8B6
:1042A0001F1040F27E00C2F20000405C032812D1D1
:1042B000FFE79DF81F2040F26601C2F20001885C12
:1042C00000F0FD0088549DF81F000399BDF81220EE
:1042D00001F052FCFFE707E09DF81F0006999DF8EA
:1042E000152000F029F9FFE707E09DF81F00069967
:1042F0009DF8152000F020F9FFE708B080BD000010
:1043000080B588B08DF81F000691ADF8162000200A
:104310008DF81500ADF8120040F2FC41C2F2000128
:10432000039106990731029102994A78897841EA06
:104330000221ADF806100299CA78097941EA0221F2
:10434000ADF80410029949798DF803108DF8020038
:10435000BDF816009DF803100D31884208D1FFE723
:104360009DF80300BDF80410B0EB410F04D0FFE747
:1043700003208DF8150009E0BDF80610BDF80420F3
:10438000102000F01FF98DF81500FFE79DF81500CB
:10439000002840F0C780FFE700208DF80200FFE70B
:1043A0009DF80200BDF8041088422ADAFFE7BDF844
:1043B00006009DF802201044029901EB42010631EB
:1043C00080B200F01BFA8DF815009DF8150008B1B9
:1043D000FFE716E0BDF806009DF80230C21840F273
:1043E0009A01C2F20001029800EB4300C08821F854
:1043F0001200FFE7FFE79DF8020001308DF8020090
:10440000CEE79DF81500002840F08380FFE7039970
:10441000069B18685A689B688B604A6008600C208D
:10442000ADF81200BDF81200811F88B2000A40EA00
:10443000012003998880BDF8060009284BDCFFE7BE
:10444000BDF80600BDF8041008440A2843DBFFE766
:1044500040F29A00C2F20000807C5A283BD1FFE76C
:1044600040F29A01C2F20001AA2001F8140F0D20B7
:1044700001F058FE8DF815009DF8150010BBFFE700
:104480009DF81F1040F27E00C2F20000405C03283D
:1044900012D1FFE79DF81F2040F26601C2F2000131
:1044A000885C00F0FD0088549DF81F000399BDF85A
:1044B000122001F061FBFFE70520FCF777F8FCF71D
:1044C0000FFF07E09DF81F0006999DF8152000F0EA
:1044D00033F8FFE71CE09DF81F1040F27E00C2F2A7
:1044E0000000405C032812D1FFE79DF81F2040F236
:1044F0006601C2F20001885C00F0FD0088549DF85E
:104500001F000399BDF8122001F036FBFFE7FFE71B
:1045100007E09DF81F0006999DF8152000F00CF8A3
:10452000FFE707E09DF81F0006999DF8152000F0B1
:1045300003F8FFE708B080BD80B586B08DF817009E
:1045400004918DF80F200020ADF80C0040F2FC41E2
:10455000C2F200010291029807300190049A10689B
:1045600052684A6008600299C87940F08000C871BA
:104570009DF80F000199487002994FF440708880AF
:104580000920ADF80C009DF8171040F27E00C2F231
:104590000000405C032812D1FFE79DF8172040F28D
:1045A0006601C2F20001885C00F0FD0088549DF8AD
:1045B00017000299BDF80C2001F0DEFAFFE706B003
:1045C00080BD000083B08DF80A00ADF80810ADF88A
:1045D000062000208DF805009DF80A0001380146EC
:1045E00000910F2800F292800099DFE801F0081A8C
:1045F0005B2C085B8F8F8F8F8F8F8F8F085BBDF841
:1046000008001F2808DCFFE7BDF80800BDF8061009
:104610000844212804DBFFE702208DF80B007EE030
:1046200078E0BDF808000F2808DCFFE7BDF80800B7
:10463000BDF806100844112804DBFFE702208DF8BE
:104640000B006CE066E0BDF8080004281CDBFFE707
:10465000BDF808000F2804DCFFE702208DF80500F4
:1046600011E0BDF808001F2808DCFFE7BDF80800CE
:10467000BDF806100844212804DBFFE702208DF86E
:104680000500FFE7FFE70CE0BDF80800BDF80610E5
:104690000844052804DBFFE702208DF80500FFE74A
:1046A000FFE737E0BDF8080010281CDBFFE7BDF886
:1046B00008001F2804DCFFE702208DF8050011E048
:1046C000BDF808002F2808DCFFE7BDF80800BDF89A
:1046D00006100844312804DBFFE702208DF80500AE
:1046E000FFE7FFE711E0BDF80800BDF80610084439
:1046F000102805DCFFE7BDF80800032804DCFFE70D
:1047000002208DF80500FFE7FFE703E001208DF8A8
:104710000500FFE79DF805008DF80B00FFE79DF809
:104720000B0003B07047000080B584B0ADF80E00F8
:104730008DF80D1000208DF80C00ADF80A008DF8F2
:1047400009008DF80800BDF80E000009ADF80A0058
:10475000BDF80E00C0F3C0008DF80900BDF80E00D2
:1047600000F007008DF808009DF80D00D8B9FFE7AC
:104770009DF80E00002101F00DFC9DF808100120AD
:1047800000FA01F2BDF80A1040F29A00C2F20000ED
:1047900000EB41009DF80910014491F8400090435E
:1047A00081F8400025E09DF80D0001281CD1FFE7AD
:1047B0009DF80E000121019101F0ECFB01989DF89C
:1047C000081000FA01F2BDF80A1040F29A00C2F295
:1047D000000000EB41009DF80910014491F84000F1
:1047E000104381F8400003E003208DF80C00FFE740
:1047F000FFE79DF80C0004B080BD000080B58AB0D2
:10480000ADF82400089100208DF81F000690059057
:10481000ADF81200ADF81000BDF8240004380146D0
:1048200001911F2800F221810199DFE811F0200099
:104830003C003C0056001E0171008D001E011E014F
:104840001E011E01A9001E011E011E011E011E01E6
:104850001E011E011E011E011E011E011E011E0160
:104860001E011E011E01BC00BC00D300FD00089803
:104870000078012812DBFFE708980078FE280DDC9D
:10488000FFE7BDF824106FF0060000EB4100089927
:1048900080B201F047FC8DF81F0003E003208DF883
:1048A0001F00FFE7E2E00898007820B1FFE70898D2
:1048B000407820B9FFE703208DF81F000CE0BDF819
:1048C00024106FF0060000EB4100089980B201F05F
:1048D00029FC8DF81F00FFE7C8E00898008840BA5F
:1048E00006900698C0087C2804D8FFE703208DF8BE
:1048F0001F000CE0BDF824106FF0060000EB410033
:10490000089980B201F00EFC8DF81F00FFE7ADE0C2
:1049100008980078A52805D0FFE7089800785A285D
:104920000DD1FFE7BDF824106FF0060000EB410049
:10493000089980B201F0F6FB8DF81F0003E0032018
:104940008DF81F00FFE791E008980078A32805D0B4
:10495000FFE708980078AA280DD1FFE7BDF82410DA
:104960006FF0060000EB4100089980B201F0DAFB1D
:104970008DF81F0003E003208DF827007BE075E031
:1049800008980078552809D1FFE708984078AA28A8
:1049900004D1FFE700208DF81F0003E003208DF80D
:1049A000270068E062E00898007828B1FFE70898DF
:1049B0000078012809D1FFE7BDF8240020380899C4
:1049C0000978C0B201F0E6FA03E003208DF81F0079
:1049D000FFE74BE008980078052804DBFFE7032099
:1049E0008DF81F001FE000200390FFE703980328C5
:1049F0000BDCFFE703980230C0B2002101F0CAFAD5
:104A0000FFE7039801300390F0E708980078012849
:104A100008DBFFE7089800780130C0B2012101F0FF
:104A2000B9FAFFE7FFE721E00898007828B1FFE72F
:104A300008980078012813D1FFE700200290FFE7D3
:104A4000029805280BD8FFE79DF808000899097817
:104A500001F0A0FAFFE7029801300290F0E703E0CE
:104A600003208DF81F00FFE700E0FFE79DF81F001F
:104A70008DF82700FFE79DF827000AB080BD0000F1
:104A800083B0ADF80A0000208DF809000190009075
:104A9000BDF80A00102801D1FFE700E0FFE79DF80C
:104AA000090003B070470000FFE7FEE788B00790F9
:104AB00006910592079800F0070004900498C0F151
:104AC0000700052803D3FFE70420019004E00498C1
:104AD000C0F107000190FFE70198039004980430AB
:104AE000062803D8FFE70020009003E0049803386D
:104AF0000090FFE70098029006980399012202FABD
:104B000001F101390840029B984005999A40013A09
:104B10001140084308B070477047000080B58AB064
:104B20008DF8250008919DF82500262100F032F926
:104B3000ADF81E00BDF81E0020B9FFE70020ADF85B
:104B40002600D3E0BDF81E0040F2B551884205DBD7
:104B5000FFE740F2B450ADF81E00FFE79DF82500D6
:104B6000282100F017F9ADF81C00BDF81C00ADF8C5
:104B70001A00BDF81C006FF3DF20ADF81C0040F2F6
:104B80000040C4F600004FF480510022FBF702FF02
:104B9000BDF81C0000F0B2F99DF825004001183066
:104BA000C0B200F099F9BDF81C00BDF81E10084411
:104BB000B0F5006F1EDAFFE70020ADF81800FFE740
:104BC000BDF81800BDF81E10884212DAFFE700F0A9
:104BD0006BF98DF817009DF8170008990870089870
:104BE00001300890FFE7BDF818000130ADF818005B
:104BF000E6E758E0BDF81C00C0F50060ADF81C0009
:104C00000020ADF81800FFE7BDF81800BDF81C1033
:104C1000884212DAFFE700F047F98DF817009DF897
:104C2000170008990870089801300890FFE7BDF850
:104C300018000130ADF81800E6E740F20040C4F675
:104C4000000002904FF4805103910122FBF7A2FE75
:104C50000298039900220492FBF79CFE049800F04E
:104C60004DF99DF8250040011830C0B200F034F92C
:104C7000FFE7BDF81800BDF81E10884212DAFFE702
:104C800000F012F98DF817009DF8170008990870C8
:104C9000089801300890FFE7BDF818000130ADF822
:104CA0001800E6E7FFE740F20040C4F600004FF4CA
:104CB000805101220192FBF76DFEBDF81E10BDF878
:104CC0001A000844ADF81A009DF82500BDF81A2016
:104CD000282101F061F801999DF82500402201F09A
:104CE00031F8BDF81E00ADF82600FFE7BDF826003C
:104CF0000AB080BD80B584B0ADF80E0040F200402F
:104D0000C4F6000002904FF4805100910022FBF79E
:104D100041FEBDF80E0000F0F1F80120019000F016
:104D2000DBF800F0C1F80099019A034602988DF86B
:104D30000D30FBF72FFE9DF80D0004B080BD000084
:104D400080B584B08DF80F00ADF80C1040F2004033
:104D5000C4F6000001904FF4805100910022FBF74F
:104D600019FEBDF80C0000F0C9F89DF80F004001D5
:104D70000930C0B200F0B0F800F096F80099024691
:104D800001988DF80B200122FBF704FE9DF80B0023
:104D900004B080BD80B586B08DF81700ADF8141052
:104DA0000022ADF81220ADF8102040F20040C4F609
:104DB000000003904FF480510291FBF7EBFDBDF82A
:104DC000140000F09BF89DF8170040010A30C0B2B3
:104DD00000F082F869464FF47A70086040F654108B
:104DE000C2F200000DF1120104AA0223FDF7AAFD90
:104DF000029903980122FBF7CDFDBDF81010080AB7
:104E000040EA0120ADF81000BDF8100006B080BDEA
:104E100080B586B00490039102920498039B029996
:104E20006A4611604FF4C051002200F07FF848B18B
:104E3000FFE70499086E40F02000086603208DF813
:104E400017002CE00498039B02996A4611608021A8
:104E5000002200F011F948B1FFE70499086E40F014
:104E60002000086603208DF8170018E00498039BC3
:104E700002996A4611604FF4C061002200F056F8B2
:104E800048B1FFE70499086E40F02000086603204F
:104E90008DF8170003E000208DF81700FFE79DF85C
:104EA000170006B080BD000080B582B000208DF8EC
:104EB000070069464FF47A70086040F65410C2F259
:104EC00000000DF107010DF106020123FDF73AFD87
:104ED0009DF8060002B080BD80B582B08DF8070055
:104EE00040F65410C2F200000DF1070101224FF408
:104EF0007A73FDF7B1FB02B080BD000080B582B0CF
:104F0000ADF80600BDF80610080A40EA0120ADF829
:104F1000060040F65410C2F200000DF10601022214
:104F20004FF47A73FDF798FB02B080BD80B58CB06A
:104F3000DDF838C00A9009910892079300208DF897
:104F40000B0007980190FBF73BFD024601980E9974
:104F5000891A08440590FBF733FD04900A9800680D
:104F60000C300390059840F24001C2F2000109683C
:104F700023225143090D48430690FFE70A98006831
:104F8000806809990840089988426DD0FFE7099820
:104F9000B0F5C06F0AD1FFE7089838B9FFE703986A
:104FA00000788DF80B009DF80B00FFE707980130A3
:104FB000002858D0FFE7FBF703FD0499401A059934
:104FC000884204D2FFE70598002842D1FFE70A98FB
:104FD0000168486820F0E00048600A984068B0F531
:104FE000827F13D1FFE70A988068B0F5004F06D0A2
:104FF000FFE70A988068B0F5806F07D1FFE70A984D
:105000000168086820F040000860FFE70A98806A9D
:10501000B0F5005F0FD1FFE7FFE70A980168086865
:1050200020F4005008600A980168086840F40050B5
:105030000860FFE7FFE70A99012081F85D00FFE7BC
:105040000A99002081F85C00FFE703208DF82F000B
:105050000EE0069818B9FFE700200590FFE70698D4
:1050600001380690FFE789E700208DF82F00FFE761
:105070009DF82F000CB080BD80B58AB0DDF830C03F
:10508000089007918DF81B20059305980190FBF778
:1050900097FC024601980C99891A08440390FBF783
:1050A0008FFC0290039840F24001C2F200010968AF
:1050B000C1F3CB3148430490FFE70898006880684B
:1050C00007990840401AB0FA80F040099DF81B107B
:1050D00088425ED0FFE705980130002858D0FFE7EE
:1050E000FBF76EFC0299401A0399884204D2FFE74D
:1050F0000398002842D1FFE708980168486820F02B
:10510000E000486008984068B0F5827F13D1FFE75F
:1051100008988068B0F5004F06D0FFE708988068CF
:10512000B0F5806F07D1FFE708980168086820F0A4
:1051300040000860FFE70898806AB0F5005F0FD173
:10514000FFE7FFE708980168086820F4005008604E
:1051500008980168086840F400500860FFE7FFE71E
:105160000899012081F85D00FFE70899002081F887
:105170005C00FFE703208DF827000EE0049818B9C3
:10518000FFE700200390FFE7049801380490FFE751
:1051900093E700208DF82700FFE79DF827000AB06D
:1051A00080BD00007047000080B584B08DF80E000F
:1051B00040F26000C2F200000078FF2818D1FFE73B
:1051C00040F26000C2F200004078FF2810D1FFE7F3
:1051D00040F26000C2F200008078FF2808D1FFE7AB
:1051E00040F26000C2F20000C078FF282AD0FFE73A
:1051F00040F26000C2F200000078A8B9FFE740F278
:105200006000C2F20000407870B9FFE740F2600031
:10521000C2F20000807838B9FFE740F26000C2F2C5
:105220000000C07870B1FFE740F26400C2F20000F5
:10523000007858B9FFE740F26400C2F200004078FD
:1052400020B9FFE700208DF80F003DE09DF80E002B
:1052500000210122029200F075FD029A9DF80E00D5
:10526000114600F06FFD9DF80E000321FFF768FD69
:1052700013280AD0FFE79DF80E000121102200F04C
:1052800061FD00208DF80F001EE09DF80E0040F239
:105290006002C2F200020C2100F0A8FD9DF80E0091
:1052A00040F26401C2F2000109884ABA102100F0FC
:1052B00073FD9DF80E0001210191042200F042FDD2
:1052C00001988DF80F00FFE79DF80F0004B080BD36
:1052D00080B58AB009900020079006900590049050
:1052E000099940F26600C2F20000405CC00740B37A
:1052F000FFE7099A40F26601C2F20001885C00F003
:10530000FE008854099840F28601C2F20001029121
:1053100031F8102040F2FC01C2F200011144C0B289
:10532000FFF7FCFB02990246099B04A820F8132012
:10533000099A30F8123031F81200184421F812009E
:1053400053E1099940F27E00C2F20000405C03285C
:1053500040F04A81FFE7099A40F26601C2F200017B
:10536000885C00F0FD008854099940F28600C2F282
:10537000000030F811000128C0F23581FFE70999DB
:1053800040F28600C2F2000030F811000928C0F097
:10539000A580FFE740F2FC00C2F2000003900398F2
:1053A0008188080A40EA0120811D40F2FA00C2F219
:1053B000000001800088099A40F28601C2F20001D3
:1053C00031F81210884200F37A80FFE70398807961
:1053D000012840F07380FFE70398C0790138014647
:1053E00001910F2862D80199DFE801F008131E2906
:1053F000343F60606060606060604A559DF82400E2
:10540000039940F2FA02C2F200021288FEF7B0F9E4
:1054100053E09DF82400039940F2FA02C2F2000220
:105420001288FEF7ABFA48E09DF82400039940F299
:10543000FA02C2F200021288FEF7A6FB3DE09DF8D8
:105440002400039940F2FA02C2F200021288FEF729
:1054500033FC32E09DF82400039940F2FA02C2F2D4
:1054600000021288FEF7E6FC27E09DF8240003996D
:1054700040F2FA02C2F200021288FEF773FD1CE04D
:105480009DF82400039940F2FA02C2F20002128849
:10549000FEF760FE11E09DF82400039940F2FA0245
:1054A000C2F200021288FEF72BFF06E09DF82400EE
:1054B00003990122FFF740F8FFE7FFE70DE0099AA3
:1054C00040F28601C2F20001002021F8120040F2F1
:1054D000FA01C2F200010880FFE70DE0099A40F2EC
:1054E0008601C2F20001002021F8120040F2FA0108
:1054F000C2F200010880FFE7099940F28600C2F27B
:10550000000030F8110040F2FA01C2F200010988EF
:10551000884210DBFFE740F2FA00C2F20000038885
:10552000099A40F28601C2F2000131F81200C01A55
:1055300021F812000DE0099A40F28601C2F2000142
:10554000002021F8120040F2FA01C2F200010880A6
:10555000FFE7099940F28600C2F2000030F811001E
:10556000D0B9FFE70020ADF82200FFE7BDF8220028
:10557000B0F5806F0FDAFFE7BDF8222040F2FC01A2
:10558000C2F2000100208854FFE7BDF8220001307C
:10559000ADF82200EAE725E00020ADF82200FFE7A1
:1055A000BDF82200099A40F28601C2F2000131F8EA
:1055B0001210884215DAFFE740F2FA00C2F200004A
:1055C0000088BDF82220104440F2FC01C2F2000124
:1055D000085C8854FFE7BDF822000130ADF82200D6
:1055E000DEE7FFE7FFE7FFE7FFE70AB080BD000067
:1055F00080B582B08DF807009DF80700122140F2B7
:10560000B45200F0C9FB9DF807002F21022200F0E0
:1056100099FB9DF8070040F26E01C2F2000131F8DB
:105620001020042100F0B8FB02B080BD80B582B02C
:105630008DF806009DF8060000210122009200F07E
:1056400081FB009A9DF80600114600F07BFB9DF857
:1056500006000321FFF774FB13280AD0FFE79DF82B
:1056600006000121102200F06DFB00208DF80700DC
:105670001BE09DF806000121022200F063FB9DF86B
:1056800006000321FFF75CFB14280AD0FFE79DF812
:1056900006000121102200F055FB00208DF80700C4
:1056A00003E001208DF80700FFE79DF8070002B036
:1056B00080BD000080B582B08DF806009DF8060020
:1056C0000021022200F03EFB9DF806000122114657
:1056D00000F038FB9DF806000321FFF731FB22287C
:1056E0000AD0FFE79DF806000121102200F02AFBF6
:1056F00000208DF8070003E001208DF80700FFE788
:105700009DF8070002B080BD80B582B0009000987F
:105710000138B0F1807F03D3FFE70120019019E049
:10572000009801384EF21401CEF2000108604FF0EB
:10573000FF300F2100F0BCFB4EF21801CEF2000149
:10574000002008604EF21002CEF200020721116024
:105750000190FFE7019802B080BD000080B5FBF723
:1057600021FDFDF71FFB80BD80B59EB014A8019000
:105770002821FAF76FFD00200090139012901190ED
:1057800010900F9002A83421FAF764FD009A019856
:10579000032114914FF48031159116920122189231
:1057A0001022199202221B921C914FF4E0111D91BC
:1057B000FCF72EF918B1FFE7FAF7F0FEFFE70F202C
:1057C0000F9002211091002011904FF480621292EC
:1057D00013900FA8FBF734FF18B1FFE7FAF7DEFECE
:1057E000FFE7202002900020099002A8FBF77AFD35
:1057F00018B1FFE7FAF7D2FEFFE71EB080BD000048
:105800004EF68851CEF20001086840F4700008603E
:1058100070470000FFE7FEE780B584B040F6000067
:10582000C4F600000190402102910022FBF7B2F87B
:10583000C8200390FAF7BAFE019802990122FBF7FB
:10584000A9F80398FAF7B2FE04B080BD80B584B021
:10585000002002908DF80F00802100F02BFA0A2022
:10586000FAF7A4FE40F25001C2F200010120042226
:10587000019200F0E9FA019A40F29601C2F20001A9
:10588000052000F0E1FA40F25A01C2F200010920BD
:10589000062200F0D9FA019A40F25601C2F2000144
:1058A0000F2000F0D1FA02988DF80F00FFE79DF865
:1058B0000F00072814DCFFE79DF80F001E210222CD
:1058C000009200F03FFA009A9DF80F001F2100F0AF
:1058D00039FAFFE79DF80F0001308DF80F00E6E779
:1058E00019204FF4FA6100F009FA1B20082100F09A
:1058F000E1F904B080BD000080B582B0FFF7A6FFDB
:10590000FAF734FD00208DF80700FFE79DF8070047
:1059100007280BDCFFE79DF80700FFF769FEFFE7AC
:105920009DF8070001308DF80700EFE702B080BD59
:1059300080B582B0FFE71720FFF7DCF98DF807008C
:1059400000208DF80500FFE79DF80500072800F30B
:105950008180FFE79DF807009DF80510C840C0074B
:10596000002870D0FFE79DF8050002210091FFF7A5
:10597000E7F900998DF806009DF805009DF80620CE
:1059800000F0E0F99DF80600C00758B1FFE79DF868
:10599000052040F27E01C2F20001885C40F0020066
:1059A0008854FFE79DF806008007002813D5FFE71D
:1059B0009DF805000121102200F0C4F99DF80500B2
:1059C000FFF716FE9DF8052040F27E01C2F20001AD
:1059D00000208854FFE79DF80600C00600280BD57C
:1059E000FFE79DF8052040F26601C2F20001885CE5
:1059F00040F002008854FFE79DF8060040070028A9
:105A00000BD5FFE79DF8052040F26601C2F20001C8
:105A1000885C40F001008854FFE79DF8060000070D
:105A200000280FD5FFE79DF805000121102200F0A6
:105A300089F99DF8052040F27E01C2F200010020A4
:105A40008854FFE7FFE7FFE79DF8050001308DF878
:105A5000050079E71720FFF74DF908B1FFE76AE77E
:105A600002B080BD80B52E20FFF744F900F00100A0
:105A700080BD000080B582B000208DF80700FFE7F0
:105A80009DF80700072874DCFFE79DF8071040F237
:105A90007E00C2F20000405C002863D1FFE79DF861
:105AA000071040F23800C2F20000405CD0B9FFE7B6
:105AB0009DF80700FFF7BAFD012809D1FFE79DF81F
:105AC000072040F27E01C2F200010120885408E064
:105AD0009DF8072040F27E01C2F2000100208854A8
